{
  "_format": "hh-sol-artifact-1",
  "contractName": "Donation",
  "sourceName": "contracts/Donation.sol",
  "abi": [
    {
      "inputs": [],
      "stateMutability": "nonpayable",
      "type": "constructor"
    },
    {
      "inputs": [],
      "name": "acceptDonation",
      "outputs": [],
      "stateMutability": "payable",
      "type": "function"
    },
    {
      "inputs": [
        {
          "internalType": "address",
          "name": "",
          "type": "address"
        }
      ],
      "name": "donations",
      "outputs": [
        {
          "internalType": "uint256",
          "name": "",
          "type": "uint256"
        }
      ],
      "stateMutability": "view",
      "type": "function"
    },
    {
      "inputs": [],
      "name": "getListOfDonators",
      "outputs": [
        {
          "internalType": "address[]",
          "name": "",
          "type": "address[]"
        }
      ],
      "stateMutability": "view",
      "type": "function"
    },
    {
      "inputs": [],
      "name": "name",
      "outputs": [
        {
          "internalType": "string",
          "name": "",
          "type": "string"
        }
      ],
      "stateMutability": "view",
      "type": "function"
    },
    {
      "inputs": [],
      "name": "owner",
      "outputs": [
        {
          "internalType": "address",
          "name": "",
          "type": "address"
        }
      ],
      "stateMutability": "view",
      "type": "function"
    },
    {
      "inputs": [
        {
          "internalType": "address payable",
          "name": "from",
          "type": "address"
        },
        {
          "internalType": "uint256",
          "name": "amount",
          "type": "uint256"
        }
      ],
      "name": "withdraw",
      "outputs": [],
      "stateMutability": "nonpayable",
      "type": "function"
    }
  ],
  "bytecode": "0x60806040526040518060400160405280601081526020017f446f6e6174696f6e2070726f6a65637400000000000000000000000000000000815250600090805190602001906200005192919062000146565b503480156200005f57600080fd5b50620000947f52d8974d1cd20cbd91ad2b7d8bbfbb9a3db97adceb8439c2502455f364516c7260001b6200014360201b60201c565b620000c87ff0fbf0e51160a9075dd997a4a3c701c7f89c4a359527259f8f7977d50e9f5f6360001b6200014360201b60201c565b620000fc7fc3bef81451cde79873c6d63fd23194895a87b1e44524976991208a68dbf8ee4d60001b6200014360201b60201c565b33600160006101000a81548173ffffffffffffffffffffffffffffffffffffffff021916908373ffffffffffffffffffffffffffffffffffffffff1602179055506200025b565b50565b828054620001549062000225565b90600052602060002090601f016020900481019282620001785760008555620001c4565b82601f106200019357805160ff1916838001178555620001c4565b82800160010185558215620001c4579182015b82811115620001c3578251825591602001919060010190620001a6565b5b509050620001d39190620001d7565b5090565b5b80821115620001f2576000816000905550600101620001d8565b5090565b7f4e487b7100000000000000000000000000000000000000000000000000000000600052602260045260246000fd5b600060028204905060018216806200023e57607f821691505b60208210811415620002555762000254620001f6565b5b50919050565b610dda806200026b6000396000f3fe6080604052600436106100555760003560e01c806306fdde031461005a57806331c660c4146100855780634d5d4f741461008f5780638da5cb5b146100ba578063cc6cb19a146100e5578063f3fef3a314610122575b600080fd5b34801561006657600080fd5b5061006f61014b565b60405161007c91906109b8565b60405180910390f35b61008d6101d9565b005b34801561009b57600080fd5b506100a46105bd565b6040516100b19190610aca565b60405180910390f35b3480156100c657600080fd5b506100cf6106cf565b6040516100dc9190610afb565b60405180910390f35b3480156100f157600080fd5b5061010c60048036038101906101079190610b47565b6106f5565b6040516101199190610b8d565b60405180910390f35b34801561012e57600080fd5b5061014960048036038101906101449190610c12565b61070d565b005b6000805461015890610c81565b80601f016020809104026020016040519081016040528092919081815260200182805461018490610c81565b80156101d15780601f106101a6576101008083540402835291602001916101d1565b820191906000526020600020905b8154815290600101906020018083116101b457829003601f168201915b505050505081565b6102057fad314673bf4cbfc391873df9a4c7d078d7a0495f4b4b27476a5ebdf580804a2a60001b61091c565b6102317ff2c073dbd8a9708cf2b366519889d907a0568d29ab3442b67cd17e3f5d15ee4760001b61091c565b61025d7f74af2f594bb0fdf371cd17cd8c8db6fef8fda78a89da4343fb0b056e2c2865ad60001b61091c565b6000600360003373ffffffffffffffffffffffffffffffffffffffff1673ffffffffffffffffffffffffffffffffffffffff1681526020019081526020016000205490506102cd7f0b3f3688e2fd3531d0107faf3b010f03b8c9463d4f654206ed1e435f7abab84260001b61091c565b6102f97f6307ab95a5e351186d5b92045a2f4a06adf936589b734777b8c1946da0efa01660001b61091c565b34816103059190610ce2565b600360003373ffffffffffffffffffffffffffffffffffffffff1673ffffffffffffffffffffffffffffffffffffffff168152602001908152602001600020819055506103747fc7413f414d8a584938167bbabb83c6a57bc861e34e13f4db7a458cfa8107fb9960001b61091c565b6103a07fe9728d0ca1054132fd3c936107aeaac146702c8eee18f313e1e181f543c027d260001b61091c565b600460003373ffffffffffffffffffffffffffffffffffffffff1673ffffffffffffffffffffffffffffffffffffffff16815260200190815260200160002060009054906101000a900460ff1661058d5761041d7f7cddfcca67576e63592805b03f7747df681a8555923754a769f48a78d4bcd0b460001b61091c565b6104497fd5399ff17ea72e1d07f714e2bf8c24b80776575c830e47f209a1381e66474b8360001b61091c565b6104757f8d60daaa4c6203bd612bd611151e90840f1223f9b53c41f7ffd4a75725ad9a3160001b61091c565b6001600460003373ffffffffffffffffffffffffffffffffffffffff1673ffffffffffffffffffffffffffffffffffffffff16815260200190815260200160002060006101000a81548160ff0219169083151502179055506104f97fa475eddf57546bf7971b53b6e672acd050aa182284e2acfbc1abc82efbdbba9760001b61091c565b6105257f074a29cc53cdd71ec85ea17f61850932627f1558202e6b20488fc77815d6981060001b61091c565b6002339080600181540180825580915050600190039060005260206000200160009091909190916101000a81548173ffffffffffffffffffffffffffffffffffffffff021916908373ffffffffffffffffffffffffffffffffffffffff1602179055506105ba565b6105b97f996658727cf1c7a6e2193fd6a41c6c3356995758917b4ac3a8e64bae154f411960001b61091c565b5b50565b60606105eb7f4f079571a64df72f5f9f4fa3c68c6c8269aa6ff7f3a1ea261cf7ed4719ee805060001b61091c565b6106177f4d52a3c915a625de7dc46743e9f57f5de87cd5e32dbe53b77b6ad6e1b468a40560001b61091c565b6106437f5846f8d35b57cd8f4e169a4a2c1e1a87f9b4765adfc7248c668455fad4928b5860001b61091c565b60028054806020026020016040519081016040528092919081815260200182805480156106c557602002820191906000526020600020905b8160009054906101000a900473ffffffffffffffffffffffffffffffffffffffff1673ffffffffffffffffffffffffffffffffffffffff168152602001906001019080831161067b575b5050505050905090565b600160009054906101000a900473ffffffffffffffffffffffffffffffffffffffff1681565b60036020528060005260406000206000915090505481565b6107397ff35c945fb06033a207660fc492ac8f66bb309e87f6ddb6b3606c0cd14aa7770460001b61091c565b6107657f467c7491c950f6b241c0228df2cdbfa17ecde6af6779ef70a59a3a9dc649388760001b61091c565b6107917f64b63ff0554d840191a28ed5aba1e420de6abc179384a3aca87c8429332c214760001b61091c565b6107bd7f0ae7dcc89b4f3c4ed86944970b6dd74a805c0a47a78628dc8f1a48ecb4b1d40a60001b61091c565b600160009054906101000a900473ffffffffffffffffffffffffffffffffffffffff1673ffffffffffffffffffffffffffffffffffffffff163373ffffffffffffffffffffffffffffffffffffffff161461084d576040517f08c379a000000000000000000000000000000000000000000000000000000000815260040161084490610d84565b60405180910390fd5b6108797f836a2c8395a90e06164d09f38cced647d3c39ca396fa9d66baf4e3332cb033f360001b61091c565b6108a57f964c4a8d072fc09c445b8c56b377a5f09d855ee0fc49b6433b6d5cb099596a4a60001b61091c565b6108d17f0189cb1dd4fbdb680f3eea135d41724666a01bc48b1e54cee14878a1bffb4c6e60001b61091c565b8173ffffffffffffffffffffffffffffffffffffffff166108fc829081150290604051600060405180830381858888f19350505050158015610917573d6000803e3d6000fd5b505050565b50565b600081519050919050565b600082825260208201905092915050565b60005b8381101561095957808201518184015260208101905061093e565b83811115610968576000848401525b50505050565b6000601f19601f8301169050919050565b600061098a8261091f565b610994818561092a565b93506109a481856020860161093b565b6109ad8161096e565b840191505092915050565b600060208201905081810360008301526109d2818461097f565b905092915050565b600081519050919050565b600082825260208201905092915050565b6000819050602082019050919050565b600073ffffffffffffffffffffffffffffffffffffffff82169050919050565b6000610a3182610a06565b9050919050565b610a4181610a26565b82525050565b6000610a538383610a38565b60208301905092915050565b6000602082019050919050565b6000610a77826109da565b610a8181856109e5565b9350610a8c836109f6565b8060005b83811015610abd578151610aa48882610a47565b9750610aaf83610a5f565b925050600181019050610a90565b5085935050505092915050565b60006020820190508181036000830152610ae48184610a6c565b905092915050565b610af581610a26565b82525050565b6000602082019050610b106000830184610aec565b92915050565b600080fd5b610b2481610a26565b8114610b2f57600080fd5b50565b600081359050610b4181610b1b565b92915050565b600060208284031215610b5d57610b5c610b16565b5b6000610b6b84828501610b32565b91505092915050565b6000819050919050565b610b8781610b74565b82525050565b6000602082019050610ba26000830184610b7e565b92915050565b6000610bb382610a06565b9050919050565b610bc381610ba8565b8114610bce57600080fd5b50565b600081359050610be081610bba565b92915050565b610bef81610b74565b8114610bfa57600080fd5b50565b600081359050610c0c81610be6565b92915050565b60008060408385031215610c2957610c28610b16565b5b6000610c3785828601610bd1565b9250506020610c4885828601610bfd565b9150509250929050565b7f4e487b7100000000000000000000000000000000000000000000000000000000600052602260045260246000fd5b60006002820490506001821680610c9957607f821691505b60208210811415610cad57610cac610c52565b5b50919050565b7f4e487b7100000000000000000000000000000000000000000000000000000000600052601160045260246000fd5b6000610ced82610b74565b9150610cf883610b74565b9250827fffffffffffffffffffffffffffffffffffffffffffffffffffffffffffffffff03821115610d2d57610d2c610cb3565b5b828201905092915050565b7f6e6f74206f776e65720000000000000000000000000000000000000000000000600082015250565b6000610d6e60098361092a565b9150610d7982610d38565b602082019050919050565b60006020820190508181036000830152610d9d81610d61565b905091905056fea2646970667358221220d5754b90fab536753297893a8cdd4188a103494bd2ad99e643cb78470cb59d0064736f6c634300080c0033",
  "linkReferences": {},
  "deployedLinkReferences": {}
}